{
  "_format": "hh3-artifact-1",
  "contractName": "CoopCoin",
  "sourceName": "contracts/CoopCoin.sol",
  "abi": [
    {
      "inputs": [],
      "stateMutability": "nonpayable",
      "type": "constructor"
    },
    {
      "inputs": [
        {
          "internalType": "uint256",
          "name": "increasedSupply",
          "type": "uint256"
        },
        {
          "internalType": "uint256",
          "name": "cap",
          "type": "uint256"
        }
      ],
      "name": "ERC20ExceededCap",
      "type": "error"
    },
    {
      "inputs": [
        {
          "internalType": "address",
          "name": "spender",
          "type": "address"
        },
        {
          "internalType": "uint256",
          "name": "allowance",
          "type": "uint256"
        },
        {
          "internalType": "uint256",
          "name": "needed",
          "type": "uint256"
        }
      ],
      "name": "ERC20InsufficientAllowance",
      "type": "error"
    },
    {
      "inputs": [
        {
          "internalType": "address",
          "name": "sender",
          "type": "address"
        },
        {
          "internalType": "uint256",
          "name": "balance",
          "type": "uint256"
        },
        {
          "internalType": "uint256",
          "name": "needed",
          "type": "uint256"
        }
      ],
      "name": "ERC20InsufficientBalance",
      "type": "error"
    },
    {
      "inputs": [
        {
          "internalType": "address",
          "name": "approver",
          "type": "address"
        }
      ],
      "name": "ERC20InvalidApprover",
      "type": "error"
    },
    {
      "inputs": [
        {
          "internalType": "uint256",
          "name": "cap",
          "type": "uint256"
        }
      ],
      "name": "ERC20InvalidCap",
      "type": "error"
    },
    {
      "inputs": [
        {
          "internalType": "address",
          "name": "receiver",
          "type": "address"
        }
      ],
      "name": "ERC20InvalidReceiver",
      "type": "error"
    },
    {
      "inputs": [
        {
          "internalType": "address",
          "name": "sender",
          "type": "address"
        }
      ],
      "name": "ERC20InvalidSender",
      "type": "error"
    },
    {
      "inputs": [
        {
          "internalType": "address",
          "name": "spender",
          "type": "address"
        }
      ],
      "name": "ERC20InvalidSpender",
      "type": "error"
    },
    {
      "anonymous": false,
      "inputs": [
        {
          "indexed": true,
          "internalType": "address",
          "name": "owner",
          "type": "address"
        },
        {
          "indexed": true,
          "internalType": "address",
          "name": "spender",
          "type": "address"
        },
        {
          "indexed": false,
          "internalType": "uint256",
          "name": "value",
          "type": "uint256"
        }
      ],
      "name": "Approval",
      "type": "event"
    },
    {
      "anonymous": false,
      "inputs": [
        {
          "indexed": true,
          "internalType": "address",
          "name": "toAddress",
          "type": "address"
        }
      ],
      "name": "ToppedUp",
      "type": "event"
    },
    {
      "anonymous": false,
      "inputs": [
        {
          "indexed": true,
          "internalType": "address",
          "name": "from",
          "type": "address"
        },
        {
          "indexed": true,
          "internalType": "address",
          "name": "to",
          "type": "address"
        },
        {
          "indexed": false,
          "internalType": "uint256",
          "name": "value",
          "type": "uint256"
        }
      ],
      "name": "Transfer",
      "type": "event"
    },
    {
      "inputs": [
        {
          "internalType": "address",
          "name": "owner",
          "type": "address"
        },
        {
          "internalType": "address",
          "name": "spender",
          "type": "address"
        }
      ],
      "name": "allowance",
      "outputs": [
        {
          "internalType": "uint256",
          "name": "",
          "type": "uint256"
        }
      ],
      "stateMutability": "view",
      "type": "function"
    },
    {
      "inputs": [
        {
          "internalType": "address",
          "name": "spender",
          "type": "address"
        },
        {
          "internalType": "uint256",
          "name": "value",
          "type": "uint256"
        }
      ],
      "name": "approve",
      "outputs": [
        {
          "internalType": "bool",
          "name": "",
          "type": "bool"
        }
      ],
      "stateMutability": "nonpayable",
      "type": "function"
    },
    {
      "inputs": [
        {
          "internalType": "address",
          "name": "account",
          "type": "address"
        }
      ],
      "name": "balanceOf",
      "outputs": [
        {
          "internalType": "uint256",
          "name": "",
          "type": "uint256"
        }
      ],
      "stateMutability": "view",
      "type": "function"
    },
    {
      "inputs": [],
      "name": "cap",
      "outputs": [
        {
          "internalType": "uint256",
          "name": "",
          "type": "uint256"
        }
      ],
      "stateMutability": "view",
      "type": "function"
    },
    {
      "inputs": [],
      "name": "decimals",
      "outputs": [
        {
          "internalType": "uint8",
          "name": "",
          "type": "uint8"
        }
      ],
      "stateMutability": "view",
      "type": "function"
    },
    {
      "inputs": [],
      "name": "issueMeSomeTokens",
      "outputs": [],
      "stateMutability": "nonpayable",
      "type": "function"
    },
    {
      "inputs": [],
      "name": "name",
      "outputs": [
        {
          "internalType": "string",
          "name": "",
          "type": "string"
        }
      ],
      "stateMutability": "view",
      "type": "function"
    },
    {
      "inputs": [],
      "name": "symbol",
      "outputs": [
        {
          "internalType": "string",
          "name": "",
          "type": "string"
        }
      ],
      "stateMutability": "view",
      "type": "function"
    },
    {
      "inputs": [],
      "name": "totalSupply",
      "outputs": [
        {
          "internalType": "uint256",
          "name": "",
          "type": "uint256"
        }
      ],
      "stateMutability": "view",
      "type": "function"
    },
    {
      "inputs": [
        {
          "internalType": "address",
          "name": "to",
          "type": "address"
        },
        {
          "internalType": "uint256",
          "name": "value",
          "type": "uint256"
        }
      ],
      "name": "transfer",
      "outputs": [
        {
          "internalType": "bool",
          "name": "",
          "type": "bool"
        }
      ],
      "stateMutability": "nonpayable",
      "type": "function"
    },
    {
      "inputs": [
        {
          "internalType": "address",
          "name": "from",
          "type": "address"
        },
        {
          "internalType": "address",
          "name": "to",
          "type": "address"
        },
        {
          "internalType": "uint256",
          "name": "value",
          "type": "uint256"
        }
      ],
      "name": "transferFrom",
      "outputs": [
        {
          "internalType": "bool",
          "name": "",
          "type": "bool"
        }
      ],
      "stateMutability": "nonpayable",
      "type": "function"
    }
  ],
  "bytecode": "0x60a060405234801561000f575f5ffd5b5061001c6012600a61039f565b610028906127106103b1565b6040518060400160405280600881526020016721b7b7b821b7b4b760c11b815250604051806040016040528060048152602001630434f4f560e41b81525081600390816100759190610458565b5060046100828282610458565b505050805f036100ac5760405163392e1e2760e01b81525f60048201526024015b60405180910390fd5b6080526100d0336100bf6012600a61039f565b6100cb906106a66103b1565b6100d5565b610525565b6001600160a01b0382166100fe5760405163ec442f0560e01b81525f60048201526024016100a3565b6101095f838361010d565b5050565b61011883838361011d565b505050565b610128838383610180565b6001600160a01b038316610118575f61014060805190565b90505f61014c60025490565b9050818111156101795760405163279e7e1560e21b815260048101829052602481018390526044016100a3565b5050505050565b6001600160a01b0383166101aa578060025f82825461019f9190610512565b9091555061021a9050565b6001600160a01b0383165f90815260208190526040902054818110156101fc5760405163391434e360e21b81526001600160a01b038516600482015260248101829052604481018390526064016100a3565b6001600160a01b0384165f9081526020819052604090209082900390555b6001600160a01b03821661023657600280548290039055610254565b6001600160a01b0382165f9081526020819052604090208054820190555b816001600160a01b0316836001600160a01b03167fddf252ad1be2c89b69c2b068fc378daa952ba7f163c4a11628f55a4df523b3ef8360405161029991815260200190565b60405180910390a3505050565b634e487b7160e01b5f52601160045260245ffd5b6001815b60018411156102f5578085048111156102d9576102d96102a6565b60018416156102e757908102905b60019390931c9280026102be565b935093915050565b5f8261030b57506001610399565b8161031757505f610399565b816001811461032d576002811461033757610353565b6001915050610399565b60ff841115610348576103486102a6565b50506001821b610399565b5060208310610133831016604e8410600b8410161715610376575081810a610399565b6103825f1984846102ba565b805f1904821115610395576103956102a6565b0290505b92915050565b5f6103aa83836102fd565b9392505050565b8082028115828204841417610399576103996102a6565b634e487b7160e01b5f52604160045260245ffd5b600181811c908216806103f057607f821691505b60208210810361040e57634e487b7160e01b5f52602260045260245ffd5b50919050565b601f82111561011857805f5260205f20601f840160051c810160208510156104395750805b601f840160051c820191505b81811015610179575f8155600101610445565b81516001600160401b03811115610471576104716103c8565b6104858161047f84546103dc565b84610414565b6020601f8211600181146104b7575f83156104a05750848201515b5f19600385901b1c1916600184901b178455610179565b5f84815260208120601f198516915b828110156104e657878501518255602094850194600190920191016104c6565b508482101561050357868401515f19600387901b60f8161c191681555b50505050600190811b01905550565b80820180821115610399576103996102a6565b6080516109316105445f395f8181610121015261051c01526109315ff3fe608060405234801561000f575f5ffd5b50600436106100a6575f3560e01c8063355274ea1161006e578063355274ea1461011f57806370a082311461014557806395d89b411461016d578063a9059cbb14610175578063b58611b314610188578063dd62ed3e14610192575f5ffd5b806306fdde03146100aa578063095ea7b3146100c857806318160ddd146100eb57806323b872dd146100fd578063313ce56714610110575b5f5ffd5b6100b26101ca565b6040516100bf9190610694565b60405180910390f35b6100db6100d63660046106e4565b61025a565b60405190151581526020016100bf565b6002545b6040519081526020016100bf565b6100db61010b36600461070c565b610273565b604051601281526020016100bf565b7f00000000000000000000000000000000000000000000000000000000000000006100ef565b6100ef610153366004610746565b6001600160a01b03165f9081526020819052604090205490565b6100b2610296565b6100db6101833660046106e4565b6102a5565b6101906102b2565b005b6100ef6101a0366004610766565b6001600160a01b039182165f90815260016020908152604080832093909416825291909152205490565b6060600380546101d990610797565b80601f016020809104026020016040519081016040528092919081815260200182805461020590610797565b80156102505780601f1061022757610100808354040283529160200191610250565b820191905f5260205f20905b81548152906001019060200180831161023357829003601f168201915b5050505050905090565b5f336102678185856102fe565b60019150505b92915050565b5f33610280858285610310565b61028b858585610391565b506001949350505050565b6060600480546101d990610797565b5f33610267818585610391565b6102d2336102c26012600a6108c6565b6102cd9060646108d1565b6103ee565b60405133907fb8b480df622d86e3c3812f4a8366c74caf7011bde5c8dc0743ee34b9c0ac469a905f90a2565b61030b8383836001610426565b505050565b6001600160a01b038381165f908152600160209081526040808320938616835292905220545f1981101561038b578181101561037d57604051637dc7a0d960e11b81526001600160a01b038416600482015260248101829052604481018390526064015b60405180910390fd5b61038b84848484035f610426565b50505050565b6001600160a01b0383166103ba57604051634b637e8f60e11b81525f6004820152602401610374565b6001600160a01b0382166103e35760405163ec442f0560e01b81525f6004820152602401610374565b61030b8383836104f8565b6001600160a01b0382166104175760405163ec442f0560e01b81525f6004820152602401610374565b6104225f83836104f8565b5050565b6001600160a01b03841661044f5760405163e602df0560e01b81525f6004820152602401610374565b6001600160a01b03831661047857604051634a1406b160e11b81525f6004820152602401610374565b6001600160a01b038085165f908152600160209081526040808320938716835292905220829055801561038b57826001600160a01b0316846001600160a01b03167f8c5be1e5ebec7d5bd14f71427d1e84f3dd0314c0f7b2291e5b200ac8c7c3b925846040516104ea91815260200190565b60405180910390a350505050565b61030b83838361050983838361056e565b6001600160a01b03831661030b576002547f000000000000000000000000000000000000000000000000000000000000000090818111156105675760405163279e7e1560e21b81526004810182905260248101839052604401610374565b5050505050565b6001600160a01b038316610598578060025f82825461058d91906108e8565b909155506106089050565b6001600160a01b0383165f90815260208190526040902054818110156105ea5760405163391434e360e21b81526001600160a01b03851660048201526024810182905260448101839052606401610374565b6001600160a01b0384165f9081526020819052604090209082900390555b6001600160a01b03821661062457600280548290039055610642565b6001600160a01b0382165f9081526020819052604090208054820190555b816001600160a01b0316836001600160a01b03167fddf252ad1be2c89b69c2b068fc378daa952ba7f163c4a11628f55a4df523b3ef8360405161068791815260200190565b60405180910390a3505050565b602081525f82518060208401528060208501604085015e5f604082850101526040601f19601f83011684010191505092915050565b80356001600160a01b03811681146106df575f5ffd5b919050565b5f5f604083850312156106f5575f5ffd5b6106fe836106c9565b946020939093013593505050565b5f5f5f6060848603121561071e575f5ffd5b610727846106c9565b9250610735602085016106c9565b929592945050506040919091013590565b5f60208284031215610756575f5ffd5b61075f826106c9565b9392505050565b5f5f60408385031215610777575f5ffd5b610780836106c9565b915061078e602084016106c9565b90509250929050565b600181811c908216806107ab57607f821691505b6020821081036107c957634e487b7160e01b5f52602260045260245ffd5b50919050565b634e487b7160e01b5f52601160045260245ffd5b6001815b600184111561081e57808504811115610802576108026107cf565b600184161561081057908102905b60019390931c9280026107e7565b935093915050565b5f826108345750600161026d565b8161084057505f61026d565b816001811461085657600281146108605761087c565b600191505061026d565b60ff841115610871576108716107cf565b50506001821b61026d565b5060208310610133831016604e8410600b841016171561089f575081810a61026d565b6108ab5f1984846107e3565b805f19048211156108be576108be6107cf565b029392505050565b5f61075f8383610826565b808202811582820484141761026d5761026d6107cf565b8082018082111561026d5761026d6107cf56fea2646970667358221220854cd8041b0f8b0ab5a9f2e59bc7fc87f92260fac5267ce39b8547970d8d69a664736f6c634300081c0033",
  "linkReferences": {},
  "deployedLinkReferences": {},
  "immutableReferences": {
    "738": [
      {
        "length": 32,
        "start": 289
      },
      {
        "length": 32,
        "start": 1308
      }
    ]
  },
  "inputSourceName": "project/contracts/CoopCoin.sol",
  "buildInfoId": "solc-0_8_28-05ddbe9b7453563cc6179f7e0ba18d07419e37c9"
}